:020000040800F2
:10000000C06B00206502000801B400086D9800086C
:10001000FDB30008D10D000885F7000800000000BE
:10002000000000000000000000000000A101000826
:10003000AF35000800000000FD01000805C20008FF
:100040007F0200087F0200087F0200087F0200088C
:100050007F0200087F020008B13500087F02000817
:10006000BB3500087F0200087F020008A1330008AA
:100070007F0200087F0200087F0200087F0200085C
:100080007F020008B1330008AD0A00087F020008B3
:100090007F0200087F0200087F0200087F0200083C
:1000A0007F0200087F0200087F0200087F0200082C
:1000B0007F0200087F02000871C30008BD98000895
:1000C000AD980008DD980008CD980008A9C1000887
:1000D0007F020008EDCE0008FDCE00080DCF00081D
:1000E0007F0200087F0200087F0200087F020008EC
:1000F0007F0200087F0200087F0200087F020008DC
:100100007F0200087F0200087F0200087F020008CB
:100110007F0200087F02000881C3000891C3000825
:10012000C13300087F0200087F0200087F02000838
:100130007F0200087F0200087F0200087F0200089B
:100140007F0200087F0200087F02000805B4000853
:100150007F0200087F0200087F0200081DCF000810
:100160007F0200087F0200087F0200087F0200086B
:100170007F0200087F0200087F02000800000000E4
:100180007F0200087F020008DFF810D000F0DEFBDD
:10019000004800474D2B0108AFF30080C06B0020E2
:1001A0002C4B19680868B0E8F04F80F30988BFF35A
:1001B0006F8F4FF0000080F311887047000000003F
:1001C00008480068006880F308884FF0000080F35A
:1001D000148862B661B6BFF34F8FBFF36F8F00DF35
:1001E00000BF00BF08ED00E0DFF80C00016841F43B
:1001F00070010160704700BF88ED00E0EFF30980F7
:10020000BFF36F8F134B1A681EF0100F08BF20ED5D
:10021000108A20E9F04F106009B44FF0500080F3CD
:100220001188BFF34F8FBFF36F8F15F0D3FD4FF0E1
:10023000000080F3118809BC19680868B0E8F04F25
:100240001EF0100F08BFB0EC108A80F30988BFF3CE
:100250006F8F7047FC000020EFF3058070470000AF
:1002600040BA70470648804706480047FEE7FEE769
:10027000FEE7FEE7FEE7FEE7FEE7FEE7FEE7FEE756
:100280000DC30008890100082DE9F05F0546002034
:1002900092469B4688460646814640241BE02846F7
:1002A00041464746224600F088FA53465A46C01A4D
:1002B000914110D311461846224600F06FFA2D1ACC
:1002C00067EB01084F4622460120002100F066FA44
:1002D00017EB00094E41201EA4F10104DFDC484663
:1002E00031462A464346BDE8F09F40EA01039B079A
:1002F00003D009E008C9121F08C0042AFAD203E09B
:1003000011F8013B00F8013B521EF9D27047D2B2FE
:1003100001E000F8012B491EFBD270470022F6E7EE
:1003200010B513460A4604461946FFF7F0FF20466B
:1003300010BD10B5044604E00B7800F8013B03B192
:10034000491C521EF8D2204610BD421C10F8011B59
:100350000029FBD1801A704730B5054600200346BE
:1003600000E05B1C934205D2EC5CC85C201A01D112
:10037000002CF6D130BD2DE9FE4F804681EA030006
:10038000C00F0C46009021F0004123F00045B8EB6F
:100390000200A94105D24046214690461C460B4624
:1003A000024623F00040104347D0270DC7F30A0050
:1003B000C3F30A510290401A019040286BDAC3F34C
:1003C000130040F4801B0098924620B10023D2EB2A
:1003D000030A63EB0B0B01985946C0F140025046EB
:1003E00000F0DCF906460D4650465946019A00F0E9
:1003F000F4F910EB08006141002487EA115284EA05
:10040000E7731A4340D0009A62B3019A012A4FEA77
:10041000075215DC001B61EB02014FF0004202EABB
:100420000752CDE90042001C41F5801132462B46AF
:1004300000F012FA03B0BDE8F08F40462146F9E71C
:10044000001B61EB0201001C41F5801300185B41A9
:100450002018A2F5001747EB030140EAD570B61942
:100460006D4111E06D084FEA360645EAC0754FEA66
:100470000752001B61EB0201001C41F58011490885
:100480004FEA30000019514132462B4603B0BDE817
:10049000F04F00F0D2B90098012240000023D0EBC9
:1004A000020263EBE073009821464FEAE074B8EB78
:1004B000000061EB0401E9E783F000435BE781F0B2
:1004C000004158E72DE9FE4F81EA030404F000449F
:1004D00021F0004100944FF0000B23F0004350EA5C
:1004E00001045ED052EA03045BD0C3F30A54C1F3A3
:1004F0000A552C44A4F2F3340194A0FB0254C1F336
:10050000130141F48011C3F3130343F4801301FB7F
:10051000024400FB034E840A970A44EA815447EAE6
:100520008357A4FB076802958D0A05FB07854FEAF0
:10053000932C04FB0C542705029D4FEA065847EA0A
:100540001637B5EB08056EEB070C870E920E47EADF
:10055000811742EA8312A7FB0201B6EB0B0164EBA1
:1005600000042B0D43EA0C335E1844EB1C50DA46B2
:100570005146E7FB0201C5F313044FEA0B3343EA8C
:1005800014534FEA0432019C43EA0603A4F10C041D
:100590000294009CCDE900B400F05EF903B0BDE820
:1005A000F08F00200146F9E72DE9F04D81EA0304C0
:1005B00004F0004B21F0004514464FF0000A23F0F0
:1005C000004150EA050220D054EA01021DD0C5F3D3
:1005D0000A570246C5F31303C1F31300C1F30A56C9
:1005E00040F4801543F48013A7EB0608101BD64691
:1005F00008F2FD3873EB050002D308F1010801E0B1
:1006000092185B41B8F1000F03DA00200146BDE803
:10061000F08D00204FF48011064684460EE0171B33
:1006200073EB050705D3121B63EB050306434CEA86
:10063000010C49084FEA300092185B4150EA01076B
:10064000EDD152EA030012D082EA040083EA0501E8
:10065000084305D0101BAB4106D20122002306E05F
:1006600000224FF0004302E06FF0010253101AEB3A
:1006700006004CEB085110EB0A0041EB0B01BDE802
:10068000F04D00F0DAB80EB540F23341029100218E
:10069000CDE900110A460B4600F0DEF803B000BDBC
:1006A00070B5C1F30A5201F000450024C1F31301F3
:1006B00040F2FF3341F480119A4201DA002070BD0C
:1006C00040F233439A42A2F2334203DC524200F03A
:1006D00074F800E090402C43F1D0404270BDC1F36B
:1006E0000A5210B5C1F3130140F2FF3341F48011F7
:1006F0009A4201DA002010BD40F233439A42A2F23E
:10070000334203DC524200F058F810BD904010BD57
:1007100030B5041E71F1000404DB4FF00044404288
:1007200064EB0101141E73F1000405DB1C464FF05D
:100730000043524263EB04038B4208BF824230BD48
:1007400030B5041E71F1000404DB4FF00044404258
:1007500064EB0101141E73F1000405DB1C464FF02D
:100760000043524263EB0403994208BF904230BDFC
:1007700030B50B46014600202022012409E021FA71
:1007800002F59D4205D303FA02F5491B04FA02F56E
:100790002844151EA2F10102F1DC30BD202A04DB41
:1007A000203A00FA02F1002070479140C2F1200384
:1007B00020FA03F3194390407047202A04DB203AC3
:1007C00021FA02F00021704721FA02F3D040C2F171
:1007D00020029140084319467047202A06DBCB17B8
:1007E000203A41FA02F043EAE07306E041FA02F3EC
:1007F000D040C2F12002914008431946704710B51D
:1008000041000CD0C0F3C751962908DC7E2909DCD1
:1008100006DB410204D000F0004040F07E5010BDE5
:10082000002010BDC1F19604C4F1200100FA01F1CD
:10083000E04000F09DF8A04010BD10B5141E73F10B
:10084000000408DA401C41F1000192185B411A4390
:1008500001D120F0010010BD2DE9F04D92469B46DC
:1008600011B1B1FA81F202E0B0FA80F22032904682
:10087000FFF794FF04460F4640EA0A0041EA0B01E5
:1008800053465A46084313D0114653EA010019D083
:10089000C8F140025046FFF790FF05460E4650460D
:1008A00059464246FFF77AFF084305D0012004E08D
:1008B00020463946BDE8F08D0020054346EAE07643
:1008C0002C4337430A986305E40AA0EB0800002292
:1008D000FD0A44EA47540A3002D500200146E9E700
:1008E000010510196941DDE9084500196941BDE8B4
:1008F000F04DA2E70EB5C10F80EAE0700844CA07C8
:10090000002140F233438DE80E000A460B46FFF704
:10091000A3FF03B000BDC1F30A52C1F3130140F2BB
:10092000FF3341F480119A4202DA002001467047F9
:1009300040F233439A42A2F2334202DC5242FFF7C2
:100940003CBFFFF72BBF002070470000064C074D4F
:1009500006E0E06840F0010394E80700984710348F
:10096000AC42F6D3FFF714FCE46D0108046E0108F5
:100970000029A8BF7047401C490008BF20F00100B3
:10098000704710B4B0FA80FC00FA0CF050EA010491
:1009900004BF10BC704749B1CCF1200421FA04F423
:1009A00011FA0CF118BF012121430843A3EB0C01FC
:1009B000CB1D4FEA00614FEA102042BF002010BC5F
:1009C000704700EBC35010440029A4BF10BC70470F
:1009D000401C490008BF20F0010010BC704730B532
:1009E0008C1810F8012B12F00F0301D110F8013B05
:1009F000120906D110F8012B03E010F8015B01F891
:100A0000015B5B1EF9D101E001F8013B521EFBD1F5
:100A1000A142E6D3002030BD10B50246906B016CB8
:100A200011F0500F06D0016C11F0100F28D002F019
:100A300059FF10BD016C41F40071016401688A68BE
:100A400012F0405F19D1027EBAB9CA6A12F4700F6F
:100A500003D08A6812F4806F0FD14A6822F0200216
:100A60004A60016C21F480710164016C11F4805FB3
:100A700003D1016C41F00101016402F031FF10BDAE
:100A8000806BC16CBDE810401046084710B5806B04
:100A900040210164416C41F00401416402F022FFF5
:100AA00010BD10B5806B02F01CFF10BD10B50248E0
:100AB00002F01AFF10BD0000B005002010B504467A
:100AC0004F48416821F440314160416862681143F8
:100AD00041602068416821F480714160206841686C
:100AE000226941EA022141602068416821F0407199
:100AF000416020684168A2681143416020688168B4
:100B000021F40061816020688168E268114381609E
:100B1000A06A6FF07061C84214D02068816821F02B
:100B20007061816020688168A26A114381602068D9
:100B3000816821F04051816020688168E26A114338
:100B4000816009E02068816821F07061816020681F
:100B5000816821F0405181602068816821F00201A4
:100B6000816020688168227E41EA4201816094F8B8
:100B7000200000281AD0606A401E072804D940F2DD
:100B8000777120A010F0B9F82068416841F4006145
:100B900041602068416821F46041416020684168FB
:100BA000626A521E41EA4231416004E020684168B5
:100BB00021F4006141602068C16A21F47001C162C2
:100BC0002068C16AA28B521E41EA0251C1622068AC
:100BD000816821F4007181602068816894F8302078
:100BE00041EA422181602068816821F4806181604E
:100BF00020688168626941EA8221816010BD00003D
:100C0000002301402E2E2F447269766572732F5394
:100C1000544D3332463478785F48414C5F447269B2
:100C20007665722F5372632F73746D333266347826
:100C3000785F68616C5F6164632E630010B5224861
:100C4000007828B1204A11895068002203F012FF71
:100C50001D48007B28B11C4A918A1069002203F0CC
:100C600009FF194890F8300028B1174A118F506BCE
:100C7000002203F0FFFE144890F8540030B1124AED
:100C8000B2F85C10906D002203F0F4FE0E4890F86C
:100C9000600030B10C4AB2F86810506E002203F0C8
:100CA000E9FE094890F8480030B1074AB2F8501000
:100CB000D06C002203F0DEFE002004490860091D0C
:100CC0000860091D086010BD240E00203408004093
:100CD00070B52DED028B0546124890F82400F0B156
:100CE000104A918D906A012203F0C4FE0E4890EDE7
:100CF000221BB0EE410AF0EE610A53EC102B9FED7F
:100D00000B1B51EC110BFFF7DDFB41EC180BFFF750
:100D1000E6FC044621460748006813F051FEBDEC8E
:100D2000028B70BD240E0020780F00200000000010
:100D300000408F406000002010B50446054890F840
:100D4000240028B1034A918D906A002203F092FE9C
:100D500010BD0000240E002010B504460448007E9B
:100D600028B1034A118CD069002203F083FE10BD24
:100D7000240E002010B50446054890F8300028B134
:100D8000034A118F506B002203F074FE10BD000067
:100D9000240E0020014601F00F000A1102EB82022E
:100DA00000EB4200C0B2704710B504460448007B17
:100DB00028B1034A918A1069002203F05BFE10BD3E
:100DC000240E00200021014A1160704734080040C1
:100DD00000BFFEE7144A136823F001031360134AAF
:100DE000126801234AB9124A1268C2F30B02B2F523
:100DF0008A6F04BF0F4A136009D00F4A936093684B
:100E0000002BFCD11060106888420AD007E01368FC
:100E1000002BFCD1094A10601068884201D00020E4
:100E20007047012070470000002000E0002004E02F
:100E30000010005C084C025800300240004C025880
:100E40007047000030B52DED048B93B005460620A9
:100E5000FE490870FF200346024600210090FCA0D6
:100E60000EF092FC0620F9490870FF200090FE4821
:100E7000C179FF231A46FDA00EF086FC0620F34937
:100E80000870FF200346024601210090F0A00EF0FA
:100E90007BFC0620ED490870FF200090F248C179E4
:100EA000FF231A46F1A00EF06FFC0620E7490870F8
:100EB000F4488079EC498979884208D0FF20009075
:100EC000E9488179FF231A46EFA00EF05DFC062069
:100ED000DE490870EB484079E3494979884208D0F7
:100EE000FF200090E0484179FF231A46ECA00EF065
:100EF0004BFC0620D5490870E2484078DA49497829
:100F0000884208D0FF200090D7484178FF231A4636
:100F1000E9A00EF039FC0620CC490870D948C07809
:100F2000D149C978884208D0FF200090CE48C178C6
:100F3000FF231A46E6A00EF027FC0620C3490870DE
:100F4000D0488078C8498978884208D0FF2000902E
:100F5000C5488178FF231A46E3A00EF015FC002057
:100F600004E0C149095CC74A1154401C0828F8DB59
:100F7000684614F0A5FA6C469DF80000E049087038
:100F80009DF8010048709DED020B084680ED020BB4
:100F90009DF8100008749DED060B084680ED060BC9
:100FA0009DED080B80ED080B94ED0A0B80ED0A0B0C
:100FB00094F8300081F8300094ED0E0B084680ED77
:100FC0000E0B94F8400081F84000084690ED021B9B
:100FD000B0EE410AF0EE610A53EC102B9FEDC91BF5
:100FE00051EC110BFFF76EFA41EC180B06209749F4
:100FF00008709FEDC60B53EC102B51EC180BFFF74C
:101000009FFB15D89FEDC10B53EC102B51EC180B27
:10101000FFF752FA41EC190BFFF742FB0446FF20A1
:101020000346024621460090BAA00EF0ADFB14E044
:101030009FEDBE0B53EC102B51EC180BFFF79BF9F7
:1010400041EC190BFFF72CFB0446FF200346024638
:1010500021460090AFA00EF097FBA94890ED061B2B
:10106000B0EE410AF0EE610A53EC102B9FEDA51B88
:1010700051EC110BFFF726FA41EC180B06207349CF
:1010800008709FEDA20B53EC102B51EC180BFFF7DF
:1010900057FB15D89FED9D0B53EC102B51EC180B03
:1010A000FFF70AFA41EC190BFFF7FAFA0446FF20A2
:1010B00003460246214600909EA00EF065FB14E018
:1010C0009FED9A0B53EC102B51EC180BFFF753F9D3
:1010D00041EC190BFFF7E4FA0446FF2003460246F1
:1010E0002146009093A00EF04FFB854890ED081B21
:1010F000B0EE410AF0EE610A53EC102B9FED811B1C
:1011000051EC110BFFF7DEF941EC180B06204F49AB
:1011100008709FED7E0B53EC102B51EC180BFFF772
:101120000FFB15D89FED790B53EC102B51EC180BDE
:10113000FFF7C2F941EC190BFFF7B2FA0446FF20A2
:10114000034602462146009080A00EF01DFB14E0ED
:101150009FED760B53EC102B51EC180BFFF70BF9AE
:1011600041EC190BFFF79CFA0446FF2003460246A8
:101170002146009075A00EF007FB614890ED0A1B18
:10118000B0EE410AF0EE610A53EC102B9FED5D1BAF
:1011900051EC110BFFF796F941EC180B06202B4987
:1011A00008709FED5A0B53EC102B51EC180BFFF706
:1011B000C7FA15D89FED550B53EC102B51EC180BBB
:1011C000FFF77AF941EC190BFFF76AFA0446FF20A2
:1011D000034602462146009062A00EF0D5FA14E0C4
:1011E0009FED520B53EC102B51EC180BFFF7C3F88B
:1011F00041EC190BFFF754FA0446FF200346024660
:101200002146009057A00EF0BFFA06200F49087043
:10121000FF2000903A480178FF231A4657A00EF0AD
:10122000B3FA062009490870FF200090344841783D
:10123000FF231A4658A00EF0A7FA062003490870AB
:10124000FF2000902E48017CFF23B3E0880000209F
:1012500074696D652E746D302E656E3D2575256340
:1012600025632563000000008900002074696D6516
:101270002E7365632E76616C3D2575256325632588
:10128000630000009100002074696D652E6D696E29
:101290002E76616C3D25752563256325630000006E
:1012A00074696D652E686F75722E76616C3D25755B
:1012B000256325632563000074696D652E6461797B
:1012C0002E76616C3D25752563256325630000003E
:1012D00074696D652E6D6F6E74682E76616C3D2538
:1012E000752563256325630074696D652E796561D5
:1012F000722E76616C3D257525632563256300009C
:10130000A80E002052B81E85EB51F43F00000000EB
:101310000080424073656E736F72732E7A302E7642
:10132000616C3D2575256325632563000000000081
:101330000030744073656E736F72732E7A312E763F
:10134000616C3D25752563256325630073656E73A8
:101350006F72732E7A322E76616C3D25752563256A
:101360006325630073656E736F72732E7A332E7606
:10137000616C3D25752563256325630073656E7378
:101380006F72732E4431562E76616C3D2575256340
:10139000256325630000000073656E736F72732E02
:1013A0004432562E76616C3D257525632563256391
:1013B000000000001A4612A00EF0E6F906201749B8
:1013C0000870FF200090164890F83010FF231A464E
:1013D00014A00EF0D9F9062010490870FF200090E3
:1013E0000F4890F84010FF231A4615A00EF0CCF9D4
:1013F00002200A49087013B0BDEC048B30BD000018
:1014000073656E736F72732E4434562E76616C3D25
:1014100025752563256325630000000088000020F2
:10142000A80E002073656E736F72732E4438562EAB
:1014300076616C3D257525632563256300000000FA
:1014400073656E736F72732E4131562E76616C3DEB
:1014500025752563256325630000000010B504464B
:10146000054890F8480030B1034AB2F85010D06CEB
:10147000002203F0FFFA10BD240E002070B52DED00
:10148000028B05461248007EF0B1114A118CD069DA
:10149000012203F0EFFA0F4890ED201BB0EE410A55
:1014A000F0EE610A53EC102B9FED0B1B51EC110B6E
:1014B000FFF708F841EC180BFFF711F90446214635
:1014C0000748006813F07CFABDEC028B70BD000089
:1014D000240E0020780F00200000000000408F4004
:1014E0005C00002001460A2922D2DFE801F005074E
:1014F0000A0D101316191C1F80201AE04FF480707B
:1015000017E04FF4007014E04FF4806011E04FF4E6
:1015100000600EE04FF480500BE04FF4005008E004
:101520004FF4804005E04FF4004002E0402000E02E
:1015300000BF00BF7047000001460A291AD2DFE849
:1015400001F00507090B0D0F111315170B4812E0D9
:101550000A4810E009480EE008480CE007480AE095
:10156000064808E0054806E0044804E0034802E0B5
:10157000024800E000BF00BF7047000000100240BA
:101580000146B1F5006F25D00FDCB1F5807F1BD08F
:1015900004DC402928D0802928D113E0B1F5007F50
:1015A00014D0B1F5806F21D112E0B1F5805F13D076
:1015B000B1F5005F12D0B1F5804F11D0B1F5004FF9
:1015C00014D10FE0002012E0012010E002200EE014
:1015D00003200CE004200AE0052008E0062006E0D5
:1015E000072004E0082002E0092000E000BF00BF5F
:1015F000704700002DE9F74F9CB006461E98002565
:10160000D0E9044017901E9880691B901E98C0690D
:1016100012901E98806802901E98C06801901E98D3
:10162000006B1A901E98C08C16901E98006A199034
:101630001698002840F36F81D6E9000706F10801EB
:101640000DF12809D1E900AB1036FEF709FE8046FE
:101650003846FEF705FE07465046FEF701FE0790A6
:101660005846FEF7FDFD8646B54A08F0FF0009F131
:10167000020C52F8201012980B18C3F30900ADF8B1
:1016800028004FEA1821980ACBB2090A52F82330F1
:101690001844C0F30903ADF82A300A9B4FEA334AD5
:1016A000CBB252F8233003EB9023080AC3F30901AD
:1016B000ADF82C1052F8200000EB9320C0F3090382
:1016C000ADF82E300B990CF106034FEA3149810A2F
:1016D000F8B252F820000144C1F3090C380AADF801
:1016E00030C000F0FF0C000A52F82CC00CEB912126
:1016F000C1F3090CADF832C0DDF830C04FEA3C4808
:1017000000F0FF0C000A52F82CC00CEB9121C1F341
:10171000090CADF834C052F8200000EB9120C0F362
:101720000901ADF8361003F10C010D9B4FEA334768
:10173000830A0798C0B252F82000034407984FEA82
:10174000102CC3F30900ADF83800980A0CF0FF0321
:1017500052F8233018444FEA1C23C0F3090C03F05D
:10176000FF0BADF83AC052F82BB0DDF838C00BEBE8
:1017700090201B0AC0F3090B21F802BB52F823305A
:101780004FEA3C4C03EB9020C0F309034FEA902B47
:101790000EF0FF0021F8023B52F820000F9B83441B
:1017A0004FEA1E20CBF3090E21F802EB00F0FF0EEA
:1017B0004FEA334352F82EE00EEB9B2B4FEA102EEC
:1017C000CBF3090021F8020B00914FEA9B210EF0A8
:1017D000FF0B4FEA1E2E52F82BB0CDF860E08B4481
:1017E00000991098CBF3090EA1F800E0DDF860E055
:1017F00000994FEA304052F82E2002EB9B22C2F3B0
:10180000090BA1F802B0920A11991292DFF834B1D3
:10181000019A4FEA31412AFB0B22DFF82CB129FB58
:101820000B22DFF828B128FB0B22DFF824B127FBBD
:101830000B22DFF820B12CFB0B22DFF81CB123FBBD
:101840000B22DFF818B120FB0B224FF4803B21FB69
:101850000B2EDFF80CB1029A2AFB0B22DFF804B141
:1018600029FB0B22DFF800B128FB0B22DFF8FCB0CC
:1018700027FB0B224FEA3B4B2CFB0B22DFF8F0B08F
:1018800023FB0B22DFF8ECB020FB0B22DFF8E8B0E3
:1018900021FB0B22019201222AFB02F2DFF8DCA0DD
:1018A00029FB0A22DFF8D89028FB0922DFF8D48030
:1018B00027FB0822344F2CFB0722DFF8D0C023FB84
:1018C0000C22334B20FB0320324A21FB0200029002
:1018D000AEF5801017992218531A19994FEAE37C34
:1018E000A3FB01470CFB0171002203FB021114F161
:1018F000004241F1000117904C001A98E10151FBA0
:1019000010F01D9920F38F0021F8150016986D1C1A
:10191000A8423FF791AE1E98029981601E990198E6
:10192000C8601E991298C8611E9804611E99179884
:1019300048611E991B9888611FB00020BDE8F08F98
:10194000A0010020690078004E005B0037004200D3
:1019500024002D0015001C000A000F0003000600E3
:1019600096008800AC00A200BA00B400C000BE001F
:10197000B400BA00A200AC00880096000600030084
:101980000F000A001C0015002D0024004200370043
:101990005B004E00780069002DE9F74F9AB00446CD
:1019A00010690B905069169090691990D0690C904D
:1019B00090680290D06801901546106B1890E88CE2
:1019C0000027002840F3BF81688D0DF138090128F8
:1019D00000F0CA81C0B200EB40012378625C14F8C9
:1019E00000C003EB026214F810301B0403EB0C235D
:1019F00002EB0308C0EBC00214F8203014F802C058
:101A000014F8122003EB0C6C14F8113014F82110A8
:101A10001E0400EB8003120414F803A014F8133022
:101A200006EB0A260CEB060A00EB400C0CEBC00C94
:101A300014F8306014F80CC01B0406EB0C6C00EBBF
:101A4000C006A65D03EB06230CEB030BC0EB0013F3
:101A5000E35C01EB036100EB800303EBC003E35C99
:101A600004EB001402EB03228E1800BFCD4808F0EF
:101A7000FF0150F821200C9911444FEA1822C1F3BC
:101A8000090302F0FF0CADF8383050F82CC009F112
:101A900002030CEB9121C1F3090CADF83AC0DDF85B
:101AA00038C0120A4FEA3C4902F0FF0C120A50F803
:101AB0002CC00CEB9121C1F3090CADF83CC050F8DF
:101AC000222002EB9121C1F30902ADF83E200F9ACA
:101AD0004FEA32480AF0FF0250F8222002EB91212F
:101AE000C1F3090C4FEA1A22ADF840C002F0FF0C16
:101AF000120A50F82CC002F0FF0A0CEB9121C1F33E
:101B0000090CADF842C050F82AA0120A0AEB912144
:101B1000C1F3090AADF844A050F822200BF0FF0AE7
:101B200002EB9122C2F30901ADF8461050F82AA049
:101B300003F112010AEB922A4FEA1B22CAF3090BA6
:101B4000ADF848B002F0FF0B119B50F82BB0DDF858
:101B500040C00BEB9A2A4FEA122BCAF309024FEA54
:101B60009A2ACDF830A0ADF84A200BF0FF0A129A5D
:101B700050F82AE0DDF830A04FEA3C4C4FEA3343FE
:101B80004FEA3242F2444FEA1B2BCAF3090E21F806
:101B900002EB50F82BB00BEB9A2BCBF3090A21F890
:101BA00002AB4FEA9B2BCDF830B006F0FF0BDDF80F
:101BB0004CA050F82BE0DDF830B0360AF344CBF3FC
:101BC000090E21F802EB4FEA9B2BCDF830B006F05E
:101BD000FF0B4FEA3A4A50F82BE0DDF830B0F344FF
:101BE0004FEA162ECBF3090621F8026B00911499E7
:101BF0004FEA31464FEA9B210EF0FF0B4FEA1E2EB3
:101C000050F82BB0CDF85CE08B440099CBF3090E73
:101C1000A1F800E0DDF85CE0009950F82E0000EB40
:101C20009B2BCBF3090048804FEA9B2115980C9120
:101C3000DFF874B101994FEA304029FB0B11DFF84E
:101C40006CB128FB0B11DFF868B12CFB0B11DFF82E
:101C500064B123FB0B11DFF860B122FB0B11DFF83D
:101C60005CB12AFB0B11DFF858B126FB0B114FF4C6
:101C7000803B20FB0B1EDFF84CB1029929FB0B11B6
:101C8000DFF844B128FB0B11DFF840B12CFB0B113E
:101C9000DFF83CB123FB0B114FEA3B4B22FB0B114E
:101CA000DFF830B12AFB0B11DFF82CB126FB0B114A
:101CB000DFF828B120FB0B110191012129FB01F173
:101CC000DFF81C9128FB0911DFF818812CFB0811A3
:101CD000DFF814C123FB0C11444B22FB0311444ACF
:101CE0002AFB0211434A26FB0211434A20FB021041
:101CF0000290296AAEF58010A1B10B9A4FF0000C4A
:101D00001318169A16909A1AA2FB0168D31703FBB0
:101D1000018102FB0C1116F1004241F10001490062
:101D20000B9108461899C00150FB11F0298D20F342
:101D30008F0001FB07F21B997F1C21F81200E88C31
:101D4000B8423FF741AE0298A8600198E8600C984D
:101D5000E8610B982861169868611998A8611DB010
:101D60000020BDE8F08F00BF04F10801D4E9008A2B
:101D7000D1E900B695F83400103410F0200F3FF48C
:101D800075AE4046FEF76CFA80465046FEF768FA9C
:101D900082465846FEF764FA83463046FEF760FAFC
:101DA000064663E6A0010020690078004E005B0053
:101DB0003700420024002D0015001C000A000F000F
:101DC0000300060096008800AC00A200BA00B40030
:101DD000C000BE00B400BA00A200AC0088009600AB
:101DE000060003000F000A001C0015002D0024004F
:101DF000420037005B004E00780069002DE9F74F84
:101E000014468146D4E9056086B015690490D4E98A
:101E100002A0D2F81CB00390106B0290D08C0090FE
:101E2000106A019000984FF00008002843DD00BFC1
:101E300059F8020BFEF714FA2649C2B2C0F3072084
:101E400051F8222051F820005A4400EB9221C2F3AD
:101E50000903C1F3090063F30F074FEA912B60F305
:101E60001F471D494FEA374020FB01A11B4A20FBB9
:101E700002FAA1F5006029188B1B01994FEAE37C57
:101E8000A3FB01560CFB0161002203FB021115F1BB
:101E9000004241F1000106464D000298290451FB21
:101EA00010F0079920F38F0021F81800009808F12E
:101EB00001084045BCDCC4F808A00398C4F81CB075
:101EC0006661C4E903050498A06109B00020BDE87B
:101ED000F08F0000A00100200100030003000100BA
:101EE0002DE9F74F14460646D4E9045084B04FF06C
:101EF0000008009090690390D4E90290D2F81CA0E9
:101F00000290106B0190D08CD2F834B0002852D9D6
:101F1000608D01285ED0C1B23078725C06EB41065C
:101F200000EB02202F49C2B2C0F3072051F8222053
:101F300051F82000524400EB9220C2F30903C0F391
:101F4000090163F30F074FEA902A61F31F47264800
:101F50004FEA374121FB0090244A21FB02F9A0F50A
:101F600000601BF0100F13D000992A18511A236A31
:101F70004FEAE17CA1FB035E0CFB03E3002201FBC3
:101F8000023115F1004241F100014D000090284658
:101F90000104019851FB10F0218D20F38F0001FB0B
:101FA00008F2059921F8120008F101001FFA80F8E3
:101FB000E08C4045ACD8C4F808900298C4F81CA046
:101FC000C4E90305009860610398A06107B0002090
:101FD000BDE8F08F56F8020B1BF0200F18BFFEF77C
:101FE0003FF99FE7A001002001000300030001006A
:101FF0002DE9F74FD2E9041384B0D2F818C0CDF818
:102000000CC0D2E90256D2F830C0D769CDF808C06A
:10201000B2F82680CDF80080D2F820C0CDF804C0F8
:102020004FF0000CB8F1000FC8BF4FF0000B64DD9B
:102030001CF0010F6CD090F8028090F803904FEAEA
:10204000084808EB092810F8049BC1444FEA972878
:10205000354F09F0FF0A4FEA192957F82AA0D04452
:10206000C8F3090A6AF30F0409F0FF0AC9F3072944
:1020700057F82AA057F829700AEB9828C8F3090ADC
:102080006AF31F4407EB9827DFF8A0904FEA344A21
:10209000C7F309082AFB0969254E2AFB065608EBF7
:1020A000480506EB45064FF001082AFB08F84544B1
:1020B000A9F5D8584144CB1A01994FEAE379A3FB1B
:1020C00001AE09FB01E103FB0B111AF1004341F1E1
:1020D000000143464900DDF808804FEA813959FB89
:1020E00018F8DDF8149028F38F0829F81C80DDF823
:1020F00000800CF1010CC4459ADBD761C2E90413DE
:10210000C2E902560398906107B00020BDE8F08F45
:1021100090F8038010F8019B4FEA084808EB092863
:1021200010F8019B91E70000A001002001000300CE
:10213000070006002DE9F74FD2E9055183B0D2F828
:1021400010C00291D2E90267D2F81C80116B019194
:10215000516B0091D18C0023002988BF4FF0000AF9
:1021600072D9518D01297CD0C9B210F8119010F8A4
:1021700001B04FEA094909EB0B2B90F8009001EBF5
:102180004101D94400EB0100484909F0FF0B4FEA37
:10219000192951F82BB00BEB9828C8F3090B6BF3F6
:1021A0000F0409F0FF0BC9F3072951F82BB051F8C0
:1021B00029100BEB9828C8F3090B6BF31F4401EBB4
:1021C0009828DFF8EC904FEA344BC8F309012BFB59
:1021D0000979384F2BFB076601EB410106EB4107FC
:1021E00001262BFB06F60E44A9F5D851DDF8009028
:1021F00019F0100F14D08C44ACEB0505D2F820C0B8
:102200004FEAE579A5FB0CBE09FB0CEC05FB0ACCFB
:102210001BF100454CF1000C4FEA4C0C0D46614699
:102220004FEA8139019959FB11F1B2F82890DDF894
:1022300010B009FB03F921F38F012BF81910591C79
:102240008BB2D18C99428CD8C2F81C80C2E904C5EB
:10225000C2E902670298906106B00020BDE8F08FE5
:10226000FFE7009911F0200F16D013F0010F09D0ED
:10227000817890F80390090401EB092110F8049B80
:10228000894481E7C17810F8019B090401EB092119
:1022900010F8019B894477E7817890F80190090450
:1022A00001EB092110F8039BEAE70000A0010020E0
:1022B00001000300070006002DE9F74F86B08246B3
:1022C00008984FF00008D0E9044580690490089808
:1022D000D0F81C90D0E902B000900898006B0390F1
:1022E0000898C08C01900898006A02900198002814
:1022F00069DD00BF5AF8040BFDF7B2FF0146C3B217
:102300003B48090A50F8233003EB9922C2F3090332
:1023100063F30F06CBB250F8233003EB92220B0A83
:1023200003F0FF0CC2F3090150F82CC01B0A0CEBA0
:10233000922250F82300C2F3090C00EB92296CF3AF
:102340000F07C9F3090061F31F4660F31F47294BCC
:10235000009A4FEA36414FEA374021FB03224FF4FF
:10236000803320FB0322244B21FB03B3DFF88CC016
:1023700020FB0C330093012321FB03F1204B20FBB6
:10238000031BA2F5804021184A1B02994FEAE27C08
:10239000A2FB01450CFB0151002302FB031114F1C8
:1023A000004241F1000105464C000398610351FBD6
:1023B00010F0079920F38F0021F81800019808F118
:1023C0000108404596DC0898C0F808B008990098C4
:1023D000C8600898C0F81C90089804610898456186
:1023E00008990498886109B00020BDE8F08F0000CA
:1023F000A0010020030006000C000A000A000C00E7
:10240000060003002DE9F74F86B00546D2F810B05C
:1024100050690090906914460490D4E902A0D2F863
:102420001C900190106B0390506B0290D08C4FF079
:10243000000800287DD9608D01287BD0C1B201EB56
:1024400041002A78285C6B5C02EB006015F81120D3
:1024500005EB8105120402EB032210444649C3B286
:10246000000A51F8233003EB9922C2F3090363F306
:102470000F06C3B251F8233003EB9223020A02F095
:10248000FF0CC3F3090051F82CC0120A0CEB932384
:1024900051F82210C3F3090C01EB93296CF30F07D9
:1024A000C9F3090160F31F4661F31F47334B019ADB
:1024B0004FEA36404FEA374120FB03224FF4803386
:1024C00021FB03222E4B20FB03A3DFF8B8C021FB26
:1024D0000C330193012320FB03F02B4B21FB030A58
:1024E0000299A2F5804011F0100F15D000990BEB66
:1024F0000002511A236A4FEAE17CA1FB03BE0CFBE8
:1025000003E3002201FB02311BF1004241F1000113
:10251000490000908B4608464103039851FB10F098
:10252000218D20F38F0001FB08F2079921F812009A
:1025300001E008E016E008F101001FFA80F8E08CE5
:1025400040453FF678AFC4F808A00198C4F81C9045
:10255000C4E9030B009860610498A06109B00020F1
:10256000BDE8F08F029955F8040B11F0200F18BF49
:10257000FDF776FE72E70000A001002003000600D0
:102580000C000A000A000C00060003002DE9F74FBA
:1025900092B0044614984FF0000AD0E904568069BE
:1025A0000F901498D0F81CB0806802901498C068FE
:1025B00001901498006B10901498C08C0990149896
:1025C000006A0E90099800287EDD00BF54F8040BC5
:1025D00054F8021B0491FDF743FE00900498FDF7A8
:1025E0003FFE034600995448C9B250F8211001EB50
:1025F0009B2C00990A0ACCF3090161F30F074FEAFB
:102600009C2102F0FF0C50F82CC061444FEA122CC0
:102610000CF0FF0BC1F3090250F82BB04FEA1C2C51
:102620000BEB9121C1F3090B6BF30F0850F82CC091
:1026300003F0FF0B0CEB912CCCF3090150F82BB0FD
:10264000C3F307230BEB9C2CCCF3090B50F82300AE
:102650006BF30F0900EB9C2BCBF3090062F31F47D0
:1026600061F31F4860F31F49DFF8D0C0019B4FEAB8
:1026700037424FEA38414FEA394022FB0C33DFF84A
:10268000C0C021FB0C334FF4803C20FB0C33DFF83F
:10269000B4E0DDF808C022FB0ECC4FF01B1E21FB7E
:1026A0000ECCDFF8A4E020FB0ECCCDF804C04FF038
:1026B000010C22FB0CF2DFF894C021FB0C21244A10
:1026C00020FB0210029000E022E0A3F558402918F8
:1026D0008A1B0E994FEAE27CA2FB01560CFB0161BA
:1026E000002302FB031115F1004241F100010646EF
:1026F0004D001098E90251FB10F0139920F38F0060
:1027000021F81A0009980AF1010A50453FF75EAF17
:1027100014990298886014990198C8601498C0F8B8
:102720001CB0149805611498466114990F9888613B
:1027300015B00020BDE8F08FA00100200A000F00B6
:10274000030006001900150015001900060003001B
:102750000F000A002DE9F74F90B00546106906906A
:1027600050690B9090690F90D2F81CA0906802906D
:10277000D0680190106B0E901446506B0D90E08C59
:102780004FF0000900287DD9608D01287BD0C0B2B0
:1027900000EB40012A786B5C15F800C002EB036285
:1027A00015F810301B0403EB0C2302EB030B15F898
:1027B000202000EB8000285C05EB410502EB0020A7
:1027C000CDF8100063480BF0FF0250F8222002EB16
:1027D0009A21C1F309034FEA1B2263F30F06D3B218
:1027E000120A50F8233002F0FF0C03EB9123C3F3DD
:1027F000090150F82CC0120A0CEB9323C3F3090C07
:102800006CF30F0750F82220DDF810C002EB932381
:102810000CF0FF0CC3F3090250F82CC061F31F4603
:102820000CEB9323DDF810C0C3F3090ACCF3072C9B
:102830006AF30F0850F82C0062F31F4700EB932A4D
:10284000CAF3090060F31F48DFF80CC1019B4FEA8F
:1028500036414FEA37424FEA384021FB0C33DFF86C
:10286000FCC022FB0C334FF4803C20FB0C33DFF820
:10287000F0B0DDF808C021FB0BCC4FF01B1B22FB96
:102880000BCC01E042E051E0DFF8D8B020FB0BCCEC
:10289000CDF804C04FF0010C21FB0CF1DFF8C8C0EB
:1028A00022FB0C11314A20FB02100D990290A3F576
:1028B000584011F0100F15D0069900230A180B99F3
:1028C000511A226A4FEAE17CA1FB02BE0CFB02E234
:1028D00001FB03211BF1004241F100014900069177
:1028E0000B900846C1020E9851FB10F0218D20F389
:1028F0008F0001FB09F2119921F8120009F1010082
:102900001FFA80F9E08C48453FF63EAF0298A06080
:102910000198C4F81CA0E060069820610B986061E3
:102920000F98A06113B00020BDE8F08F55F804BBEC
:1029300055F8020B04900D9810F0200F3FF442AFB1
:102940005846FDF78DFC83460498FDF789FC0490FA
:1029500038E70000A00100200A000F000300060075
:102960001900150015001900060003000F000A00E9
:102970002DE9F74F94B0824616984FF00009D0E940
:1029800004400F901698806912901698D0F81CB0E9
:10299000806802901698C06801901698006B11909C
:1029A0001698C08C0A901698006A10900A98002811
:1029B0007EDD00BFFAE802010091FDF751FC0490B2
:1029C0000098FDF74DFC0146049A6948D2B250F8D0
:1029D000222002EB0B0C049A130ACCF3090262F3D7
:1029E0000F054FEA9C2203F0FF0C50F82CC0624404
:1029F0004FEA132C0CF0FF0BC2F3090350F82BB075
:102A00004FEA1C2C0BEB9222C2F3090B6BF30F065F
:102A100050F82CC001F0FF0B0CEB922C50F82BB0AF
:102A2000CCF309020BEB9C2CCCF3090B090A6BF3DA
:102A30000F0701F0FF0B63F31F4550F82BB062F353
:102A40001F460BEB9C2C4FEA112B0BF0FF0ECCF327
:102A5000090150F82EE04FEA1B2B0EEB9C2CCCF317
:102A6000090E50F82B006EF30F0800EB9C2CCCF3F2
:102A700009004FEA9C2B61F31F4760F31F48DFF802
:102A8000F4E0DDF804C04FEA35434FEA36424FEA3E
:102A900037414FEA384023FB0ECCDFF8DCE022FB65
:102AA0000ECCDFF8D8E021FB0ECC4FF4803E00E0E6
:102AB00048E020FB0ECCCDF800C0DFF8C4E0DDF824
:102AC00008C023FB0ECC20FB1ECEDFF8B8C022FBD3
:102AD0000CEE21FB1CECCDF804C04FF0010C23FBE5
:102AE0000CF3DFF8A4C022FB0C32284B21FB03219E
:102AF000274A20FB0210DDF800C00290ACF5003040
:102B00000F992218531A10994FEAE37CA3FB014E48
:102B10000CFB01E1002203FB021114F1004241F120
:102B200000010F904C001198A10251FB10F0159973
:102B300020F38F0021F819000A9809F1010948458E
:102B40003FF738AF16990298886016990198C860C7
:102B50001698C0F81CB01698046116990F98486131
:102B600016991298886117B00020BDE8F08F000018
:102B7000A001002015001C000A000F000300060041
:102B80002A00240030002E00060003000F000A0077
:102B90001C0015002DE9F74F92B00546106905900D
:102BA00050690E9090691090D069079090680190DC
:102BB000D06802901446106B0F90E08C4FF0000B21
:102BC000002840F3DC80608D012800F0E98000EBF4
:102BD00040012A786B5C15F800C002EB036215F81F
:102BE000103015F811101B0403EB0C23D618C0EBA2
:102BF000C00215F82030AA5C03EB02620B0400EB64
:102C00008001695C05EBC00503EB012111440391D0
:102C10006C48F1B250F8212007991144C1F309031F
:102C2000320A63F30F07D3B2120A50F8233002F0CE
:102C3000FF0C03EB9121C1F3090350F82CC0120AD9
:102C40000CEB9121C1F3090C6CF30F08DDF80CC0FB
:102C500050F822200CF0FF0C02EB912150F82CC010
:102C6000C1F309020CEB912C0399CCF30906090A74
:102C700066F30F09CEB263F31F4750F8266062F384
:102C80001F4806EB9C2C0E0A06F0FF0ECCF3090140
:102C900050F82EE0360A0EEB9C2CCCF3090E50F8BF
:102CA00026006EF30F0A00EB9C2CCCF309004FEAD0
:102CB0009C2CCDF81CC061F31F4960F31F4A424EA3
:102CC000DDF808C04FEA37434FEA38424FEA39414E
:102CD0004FEA3A4023FB06CC3C4E22FB06CC3C4E4E
:102CE00021FB06CC4FF4803620FB06CEDFF8E4C093
:102CF000019E23FB0C6620FB1C66DFF8DCC022FB78
:102D00000C6621FB1C6CCDF808C04FF0010C23FBB6
:102D10000CF3DFF8C8C022FB0C32314B21FB03213E
:102D2000304A20FB02100190216AAEF50030A1B1BB
:102D3000059A4FF0000C13180E9A0E909A1AA2FBE7
:102D4000016ED31703FB01E102FB0C1116F10042E7
:102D500041F1000149000591084681020F9851FB9D
:102D600010F0218D20F38F0001FB0BF213990BF172
:102D7000010B21F81200E08C58453FF724AF019871
:102D8000A0600298E0600798E061059820610E98C5
:102D900060611098A06115B00020BDE8F08F00BF01
:102DA000F5E80260039094F8340010F0200F3FF42F
:102DB0002FAF3046FDF754FA06460398FDF750FA58
:102DC000039025E7A001002015001C000A000F0059
:102DD000030006002A00240030002E000600030035
:102DE0000F000A001C0015002DE9F74F96B04FF0B8
:102DF000000A1898D0E90440119018988069129040
:102E00001898C06909901898806801901898C0684F
:102E100002901898006B14901898C08C0B9018981A
:102E2000006A13900B98002840F3FA80169850F827
:102E3000041B50F8042B039250F802BB169008466E
:102E4000FDF70EFA04900398FDF70AFA039058462E
:102E5000FDF706FA00900498DFF8F0B1C0B25BF815
:102E60002010099801440498020AC1F3090060F394
:102E70000F05880AD1B25BF821100844110AC0F38B
:102E8000090262F31F45CAB24FEA354C5BF82220B3
:102E900002EB9022080AC2F309015BF8200061F3FB
:102EA0000F0600EB9220C0F3090161F31F4603995E
:102EB0004FEA3643C9B25BF8211001EB9020039929
:102EC000C0F30902090A62F30F07CAB2090A5BF8E4
:102ED000222001F0FF0E02EB90205BF82EE0090AA1
:102EE000C0F309020EEB90205BF82110C0F3090E2D
:102EF00001EB9020C0F30901800A099000986EF35D
:102F00000F08C0B262F31F475BF820E0099861F335
:102F10001F48864400984FEA3742000A0090CEF3DB
:102F2000090060F30F090098CDF84090C0B24FEA55
:102F300038415BF8200000EB9E2BCBF3090060F3D7
:102F40001F494FEA9B2BCDF824B0DFF804E1DDF8F0
:102F500008B04FEA39402CFB0EBBDFF8F8E023FB4A
:102F60000EBBDFF8F4E022FB0EBBDFF8F0E021FB44
:102F70000EBB4FF4803E20FB0EBBCDF800B0DFF857
:102F8000E0E0DDF804B02CFB0EBBDFF8D8E023FB5B
:102F90000EBB4FF04B1E22FB0EBBDFF8CCE021FB3B
:102FA0000EBBDFF8C8E020FB0EBBCDF808B04FF039
:102FB000010B2CFB0BFCDFF8B8B023FB0BC3DFF8D5
:102FC000B4C022FB0C322C4B21FB03212B4A20FBEB
:102FD0000210DDF800B00190ABF57A30119922189B
:102FE000521A13994FEAE27CA2FB014B0CFB01B190
:102FF000002302FB031114F1004241F10001119082
:103000004C001498610251FB10F0179920F38F00C7
:1030100021F81A000B980AF1010A50453FF706AF54
:1030200018990198886018990298C86018990998A9
:10303000C8611898046118991198486118991298F4
:10304000886119B00020BDE8F08F0000A0010020C9
:1030500024002D0015001C000A000F0003000600CC
:103060003F003700490045004500490037003F0058
:10307000060003000F000A001C0015002D002400AC
:103080002DE9F74F94B004461069069050691090EE
:1030900090691290D069099090680290D068019070
:1030A0001546106B1190E88C4FF0000A002840F391
:1030B0003081688D012800F03D81C0B200EB4001F5
:1030C0002278635C14F800C002EB036214F810303D
:1030D00014F811101B0403EB0C2302EB030BC0EBE1
:1030E000C00314F82020E35C02EB03620B0400EB46
:1030F000800114F801C003EB0C231A44039214F866
:10310000302000EBC000205C04EB410402EB002007
:10311000CDF8000095480BF0FF0150F821200999E7
:103120000A44C2F309034FEA1B2163F30F06CBB233
:10313000090A50F8233003EB9222C2F3090363F328
:103140001F46CBB2090A50F8233050F8211003EB88
:103150009222C2F3090301EB922163F30F07C1F33B
:10316000090262F31F47039A4FEA364CD2B24FEA84
:10317000374350F8222002EB9121039AC1F3090E44
:103180004FEA122B0D9A6EF30F020BF0FF0E50F860
:103190002EE00EEB91214FEA1B2EC1F3090B6BF3CE
:1031A0001F420EF0FF0B0D9250F82BB04FEA324247
:1031B0000BEB91214FEA1E2BC1F3090E50F82BB0F7
:1031C0006EF30F080BEB912BCBF309014FEA9B2B0E
:1031D000CDF824B0DDF800B061F31F480BF0FF0B11
:1031E0004FEA384150F82BE0DDF824B0F344DDF825
:1031F00000E04FEA1E2ECDF800E0CBF3090E6EF38F
:103200000F09CDF83C90DDF800E04FEA9B290EF065
:10321000FF0B50F82B0000EB090BDDF83C90CBF3D3
:10322000090060F31F494FEA9B2BCDF824B0DFF86B
:1032300040E1DDF804B04FEA39402CFB0EBBDFF86B
:1032400034E123FB0EBBDFF830E122FB0EBBDFF8DD
:103250002CE121FB0EBB4FF4803E20FB0EBBCDF8D2
:1032600000B0DFF81CE1DDF808B02CFB0EBBDFF886
:1032700014E123FB0EBB4FF04B1E22FB0EBBDFF80D
:1032800008E121FB0EBBDFF804E120FB0EBBCDF80B
:1032900004B04FF0010B2CFB0BFCDFF8F4B023FB68
:1032A0000BC3DFF8F0C022FB0C323B4B21FB0321A8
:1032B0003A4A20FB02100290DDF800B0296AABF513
:1032C0007A30A1B1069A4FF0000C1318109A9A1A8E
:1032D000A2FB01BED31703FB01E102FB0C111BF1A2
:1032E000004241F100014900069110900846410258
:1032F000119851FB10F0298D20F38F0001FB0AF289
:1033000015990AF1010A21F81200E88C50453FF79F
:10331000D0AE0298A8600198E8600998E861069824
:103320002861109868611298A86117B00020BDE864
:10333000F08F00BF54F804BB54F8040B039054F80A
:10334000020B009095F8340010F0200F3FF4E2AE2D
:103350005846FCF785FF83460398FCF781FF0390EE
:103360000098FCF77DFF0090D4E60000A00100204B
:1033700024002D0015001C000A000F0003000600A9
:103380003F003700490045004500490037003F0035
:10339000060003000F000A001C0015002D00240089
:1033A00010B5024800F086FE10BD000000070020A6
:1033B00010B5024800F07EFE10BD0000600700203E
:1033C00010B5024800F076FE10BD0000F8050020A0
:1033D00001680A4BCAB2103AA3FB02321209084B29
:1033E0009B5CC365032A04D96FF30901091D81653C
:1033F00002E06FF309018165806D7047ABAAAAAA4C
:10340000306B0108014600208A6A8B69002B0FD0BF
:10341000B3F5005F1DD08AB3012A30D0022A2ED026
:10342000032A04D1C96A11F0807F00D001207047BF
:103430001AB1012A07D0022AF9D1C96A11F0807F96
:10344000F5D001207047C96AB1F1C07FFAD10120DF
:1034500070475AB1012A0BD0022A07D0032AF7D1AC
:10346000C96AB1F1C07FF3D10120704701207047D4
:10347000C96A11F0807FFAD001207047FFE7012070
:10348000704710B4D0F800C0DCF8004024F4802469
:10349000CCF80040D0F800C0CCF804308368402B52
:1034A00005D0036899600068C26010BC704703686B
:1034B0009A600068C16010BC704700001FB50446E8
:1034C0000020039001900290401E012303AAD02106
:1034D00000902248006802F08BFA10B1002004B07E
:1034E00010BD4FF0FF30072301AAD02100901B48E8
:1034F000006802F029F908B10020F0E79DF80410F7
:1035000001F07F00FDF746FCA0719DF8051001F069
:103510007F00FDF73FFC60719DF8061001F03F0051
:10352000FDF738FC20719DF8070000F00700E070FF
:103530009DF8081001F03F00FDF72CFCA0709DF8ED
:10354000091001F01F00FDF725FC60709DF80A00CE
:10355000FDF720FC20700120C1E7000000000020E2
:10356000014908607047000000000020002100228F
:1035700000EB8103C3F88023491C0F29F8D30021F5
:10358000431883F81C21491CB1F5007FF8D3027061
:10359000427001218170C0F8BC2301764023837101
:1035A000427680F81C2380F81D1300207047704776
:1035B00010B5012001F080F810BD10B5042001F015
:1035C0007BF810BD70470022AFF3008010B4844632
:1035D00001200E4B5C7A002C16D1587A1C54587A74
:1035E00003EB8000C0F804C0587A03F1080C00F81F
:1035F0000C20587A421C5A72303008703A204870B9
:103600002F208870CC70002010BC704750270020FD
:103610002DE9F04705468846914601262E48006868
:1036200098BB2E482C4908602AE02B4800680068A7
:1036300007683846FCF789FE0446285D202801D03B
:10364000285DC0B9224639462846FCF785FE90B968
:1036500021480068006890F90C0000280ADB284621
:1036600011F076FB1C490968096891F90C10884231
:1036700000D0002608E01848006840681649086035
:10368000154800680028D0D100BF1348006848B131
:1036900046B94A4612494046FCF74BFE00200E4907
:1036A000086016E00C48006868B10B4800680068C4
:1036B0002A46494683684046984706464EB9002048
:1036C0000549086005E04A4606494046FCF731FED8
:1036D00000263046BDE8F0871000002004000020DE
:1036E000E86C0108406D010870470000F8B5054618
:1036F0000C46002600962068122804D940F25A6130
:1037000065A00DF0FAFA6068401E0F2804D940F257
:103710005B6161A00DF0F1FAA06890B1012810D0B2
:1037200002280ED003280CD004280AD0052808D07F
:10373000062806D0072804D040F25C6156A00DF0A0
:10374000DCFA95F83C0001281BD0012085F83C00EC
:1037500020680722092816D92968CB680A3800EBA7
:10376000400002FA00F023EA0000C8602078A16857
:103770000A3800EB400081402868C2681143C160EC
:1037800013E00220F8BD29680B6900EB400002FA43
:1037900000F023EA000008612078A16800EB4000F7
:1037A0008140286802691143016160681F2207286F
:1037B00015D229684B6B401E00EB800002FA00F026
:1037C00023EA00004863208881B22079401E00EB84
:1037D000800081402868426B114341632CE00D2832
:1037E00015D229680B6BC01F00EB800002FA00F0B5
:1037F00023EA00000863208881B22079C01F00EB13
:10380000800081402868026B1143016314E029683D
:10381000CB6A0D3800EB800002FA00F023EA0000CA
:10382000C862208881B220790D3800EB8000814089
:103830002868C26A1143C162254826492A688A421B
:1038400006D12268122A03D1426842F48002426003
:103850002A688A421CD12168102901D0112917D168
:10386000416841F4000141602068102810D11A48D5
:103870001A490068B0FBF1F000EB800040000090B6
:10388000009828B10098401E009000980028F9D1B7
:1038900085F83C600020F8BD2E2E2F4472697665B5
:1038A00072732F53544D3332463478785F48414C0D
:1038B0005F4472697665722F5372632F73746D3330
:1038C00032663478785F68616C5F6164632E630090
:1038D0000023014000200140E800002040420F008A
:1038E000704770477047000070B50446207E00287E
:1038F00006D0012804D040F29F415DA00DF0FDF9F3
:10390000E069401E0F2804D94FF4946158A00DF0CF
:10391000F4F96069012807D030B1022804D040F2E0
:10392000A14153A00DF0E9F920680168C1F34001FD
:103930004268C2F3401269B362B3216C11F0100FF8
:1039400003D1216C41F400712164816811F0405F62
:1039500019D1217EB9B9C16A11F4700F03D0816801
:1039600011F4806F0FD1416821F020014160206C7B
:1039700020F480702064206C10F4805F03D1206CF0
:1039800040F0010020642046FFF7AAFF21686FF095
:103990001200086020680168C1F380014268C2F328
:1039A000C012A9B3A2B3216C11F0100F03D1216C86
:1039B00041F400512164816811F4401F21D1816BD1
:1039C00011F4401F03D0816811F4806F19D1416850
:1039D00011F4806F15D1816811F0405F11D1217E03
:1039E00079B9416821F080014160206C20F4805059
:1039F0002064206C10F4807F03D1206C40F0010023
:103A000020642046FFF770FE21686FF00C0008600C
:103A10002068016801F001014268C2F3801279B1A7
:103A200072B1006810F0010F0AD0206C40F48030B1
:103A30002064204600F046F921686FF0010008601C
:103A400020680168C1F340114268C2F38062002916
:103A50000DD0002A0BD0616C41F0020161646FF05F
:103A6000200505602046FFF73DFF2068056070BD1A
:103A70002E2E2F447269766572732F53544D333254
:103A8000463478785F48414C5F4472697665722F9E
:103A90005372632F73746D3332663478785F686164
:103AA0006C5F6164632E630070B504460025002CD2
:103AB00000F0C5802068A0F18041B1F590310CD0B4
:103AC0007049884209D0A0F18041B1F5913104D00C
:103AD00040F243116CA00DF010F9606868B1B0F5C8
:103AE000803F0AD0B0F5003F07D0B0F5403F04D08A
:103AF0004FF4A27164A00DF000F9A06868B1B0F1B4
:103B0000807F0AD0B0F1007F07D0B0F1407F04D0B1
:103B100040F245115CA00DF0F0F8206930B10128A9
:103B200004D04FF4A37158A00DF0E7F8207E30B117
:103B3000012804D040F2471153A00DF0DEF8604E8A
:103B4000A06A98B3B0F1807F30D0B0F1007F2DD063
:103B5000B0F1407F2AD0B0F1806F27D0B0F1A06FD4
:103B600024D0B0F1C06F21D0B0F1E06F1ED0B0F121
:103B7000006F1BD0B0F1106F18D0B0F1206F15D0CE
:103B8000B0F1306F12D0B0F1406F0FD0B0F1506F84
:103B90000CD0B0F1606F09D0B0F1706F06D0B042B8
:103BA00004D04FF4A47138A00DF0A7F8E06838B144
:103BB000B0F5006F04D040F2491133A00DF09DF82C
:103BC000E069401E0F2804D94FF4A5712EA00DF016
:103BD00094F894F8300030B1012804D040F24B1131
:103BE00029A00DF08AF86069012807D030B10228B9
:103BF00004D04FF4A67124A00DF07FF894F82000B3
:103C000030B1012804D040F24D111FA00DF075F81D
:103C1000A06AB0420FD0E06A68B1B0F1805F0AD00C
:103C2000B0F1005F07D0B0F1405F04D040F2511115
:103C300015A00DF062F8206C002610B107E00120FD
:103C400070BD204600F040F8666484F83C60206C4B
:103C500010F0100F04D0012584F83C60284670BD98
:103C6000206C20F4885040F0020020642046FCF7CD
:103C700025FF6664206C20F0020040F00100206403
:103C8000EAE70000002101402E2E2F44726976657C
:103C900072732F53544D3332463478785F48414C19
:103CA0005F4472697665722F5372632F73746D333C
:103CB00032663478785F68616C5F6164632E63009C
:103CC0000100000F7047000010B586B004461421B3
:103CD00001A8FCF723FB4949206888427ED100BF38
:103CE000002000904648006840F480704449086015
:103CF0000846006800F48070009000BF00BF00BF5D
:103D0000002000903E481438006840F004003C4910
:103D1000143908600846006800F00400009000BFF5
:103D200000BF00BF002000900846006840F001007E
:103D300008600846006800F00100009000BF00BF66
:103D400000BF002000900846006840F002000860B4
:103D50000846006800F00200009000BF00BF3E204F
:103D60000190032002900020039001A9254800F053
:103D7000AFFC12200190032002900020039001A9C3
:103D8000214800F0A5FC0320019002900020039040
:103D900001A91E4800F09CFC1D481E490860002037
:103DA000486000211B488160C1604FF4806101615F
:103DB00049004161890081614911C16109020162C3
:103DC00004214162012181620021C162016300F08E
:103DD00067FA08B1FFF7F6FB00BF00E00BE00D4803
:103DE000A063846300BF00220521122002F046FB7D
:103DF000122002F00FFB06B010BD000000200140B1
:103E00004438024000080240000002400004024022
:103E100010640240F8050020F8B504460E46174627
:103E200000250095207E002806D0012804D040F20D
:103E3000425155A00CF061FFE06A68B1B0F1805FBB
:103E40000AD0B0F1005F07D0B0F1405F04D040F27B
:103E500043514DA00CF051FF94F83C00012808D0CC
:103E6000012084F83C002068816811F0010F02D025
:103E700015E00220F8BD816841F0010181605048E1
:103E800050490068B0FBF1F000EB40000090009852
:103E900028B10098401E009000980028F9D12068B1
:103EA000816811F0010F6DD0216C21F0010121F426
:103EB000C06141F480712164406810F4806F05D0C6
:103EC000206C20F4005040F480502064206C10F4EA
:103ED000805F04D0606C20F00600606400E06564E0
:103EE00084F83C50384DA16B3848C863A16B384802
:103EF0000864A16B3748C86421686FF0220008602D
:103F00002068416841F0806141602068816841F427
:103F10008071816020683B4600F14C013246A06B05
:103F200000F044FB68682C4910F01F0F07D0206890
:103F3000884227D1816811F0405F1FD022E02068BD
:103F4000884212D0254A904204D1D1F8042312F0BD
:103F50001F0F0AD0A0F18042B2F5913212D1D1F8F0
:103F6000041301F01F0110290CD2816811F0405F89
:103F700008D1816841F08041816003E0816841F0AF
:103F8000804181600020F8BD2E2E2F447269766535
:103F900072732F53544D3332463478785F48414C16
:103FA0005F4472697665722F5372632F73746D3339
:103FB00032663478785F68616C5F6164632E630099
:103FC000E800002040420F0000230140190A0008C9
:103FD000A30A00088D0A00080020014000210140CA
:103FE00010B50446002C0CD02068A0F18041B1F53A
:103FF0000C3103D0682109A00CF07FFE607910B16C
:1040000006E0012010BD00202071204600F022F8BB
:104010000220607101206071002010BD2E2E2F44FF
:104020007269766572732F53544D33324634787803
:104030005F48414C5F4472697665722F5372632FFB
:1040400073746D3332663478785F68616C5F637265
:10405000632E630008B50A4A016891420FD100BF80
:10406000002100910749096841F48051054A116017
:104070001146096801F48051009100BF00BF08BDDE
:10408000003002403038024090F83510022903D049
:104090008021416501207047052180F835100068B6
:1040A000016821F0010101600020704790F835009F
:1040B000704700002DE9F84304464FF00008CDF8A2
:1040C000008076484FF416510068B0FBF1F7A56DFB
:1040D0002E6894F85C00082101FA00F0304211D0FB
:1040E0002068026812F0040F0CD0026822F004026B
:1040F000026094F85C0001FA00F0A860606D40F086
:104100000100606594F85C004FF0010909FA00F0C5
:10411000304209D02168496911F0800F04D0A860AD
:10412000606D40F00200606594F85C1004208840E7
:10413000304209D02168096811F0020F04D0A8604C
:10414000606D40F00400606594F85C1010208840B9
:10415000304224D02168096811F0080F1FD0A860F0
:104160002068016811F4802F0DD0006810F4002F32
:1041700004D0A16C99B12046884710E0216C71B140
:10418000204688470BE0016811F4807F03D1016865
:1041900021F008010160216C09B12046884794F89C
:1041A0005C1020208840304251D02168096811F00D
:1041B000100F4CD0A86094F8350005280DD0206869
:1041C000016811F4802F32D0006810F4002F29D03C
:1041D000E16B59B32046884739E02068016821F037
:1041E000160101602068416921F080014161206C65
:1041F00008B9A06C20B12068016821F008010160B5
:1042000094F85C003F2101FA00F0A86084F8348043
:1042100084F83590216D00293ED001B02046BDE8DC
:10422000F0430847616C09B1204688470FE00168F8
:1042300011F4807F07D1016821F01001016084F83A
:10424000348084F83590E16B09B120468847606D71
:10425000002821D0606D10F0010F15D0052084F8E2
:1042600035002068016821F0010101600098401CC0
:104270000090B84204D82068006810F0010FF5D112
:1042800084F8348084F83590E16C002904D001B0C2
:104290002046BDE8F0430847BDE8F883E800002069
:1042A0002DE9F041044600F01DFC0546002C00F00D
:1042B000EE809F492068884230D09E4988422DD0A8
:1042C0009D4988422AD09D49884227D09C498842EE
:1042D00024D09C49884221D09B4988421ED09B49CA
:1042E00088421BD09A49884218D09A49884215D0F2
:1042F0009949884212D0994988420FD098498842FA
:104300000CD09849884209D09749884206D09749ED
:10431000884203D0B82196A00CF0EFFC6068C0B1D1
:10432000B0F1007F15D0B0F1806F12D0B0F1C06F46
:104330000FD0B0F1006F0CD0B0F1206F09D0B0F108
:10434000406F06D0B0F1606F03D0B92188A00CF0A7
:10435000D4FCA06838B1402805D0802803D0BA2109
:1043600083A00CF0CAFCE068B0F5007F04D018B15F
:10437000BB217FA00CF0C1FC2069B0F5806F04D098
:1043800018B1BC217AA00CF0B8FC606948B1B0F556
:10439000006F06D0B0F5805F03D0BD2174A00CF093
:1043A000ACFCA06948B1B0F5005F06D0B0F5804F15
:1043B00003D0BE216EA00CF0A0FCE06940B1B0F5C6
:1043C000807F05D0202803D0BF2169A00CF095FC88
:1043D000206A60B1B0F5803F09D0B0F5003F06D04B
:1043E000B0F5403F03D0C02161A00CF086FC606AAC
:1043F00028B1042803D0C1215DA00CF07EFC606AC6
:1044000048B3A06A48B1012807D0022805D0032884
:1044100003D0C62156A00CF070FCE06A60B1B0F584
:10442000000F09D0B0F1807F06D0B0F1C07F03D07B
:10443000C7214FA00CF061FC206B60B1B0F5001FEC
:1044400009D0B0F5800F06D0B0F5C00F03D0C82159
:1044500047A00CF052FC002684F83460022084F857
:1044600035002068016821F00101016020680068C2
:1044700010F0010F13D000F035FB401B052809D9BF
:1044800020206065032084F83500BDE8F08101201C
:10449000BDE8F0812068006810F0010FEBD12168C1
:1044A0000868414A1040A3686268D4F810C01A43F3
:1044B000E36843EA0C031A4363691A43A3691A4386
:1044C000E3691A43236A1A431043626A042A03D138
:1044D000236BE26A1A43104308602068406920F0A9
:1044E0000701606A40EA0105012704280ED1A06A8D
:1044F0000543E06A50B12046FEF784FF30B140200A
:10450000606584F835700120BDE8F0812068456160
:104510002046FEF75DFF94F85C103F2202FA01F19D
:104520008160666584F835700020BDE8F081000088
:104530001060024028600240406002405860024023
:104540007060024088600240A0600240B860024093
:1045500010640240286402404064024058640240F3
:104560007064024088640240A0640240B864024063
:104570002E2E2F447269766572732F53544D333249
:10458000463478785F48414C5F4472697665722F93
:104590005372632F73746D3332663478785F686159
:1045A0006C5F646D612E63003F8010F02DE9F04771
:1045B0000446884691461F460025A66D781E4FF694
:1045C000FF71884204D34FF4E6711FA00CF095FBF5
:1045D00094F8340001280DD0012084F8340094F8B8
:1045E00035100020012908D084F83400022528461F
:1045F000BDE8F0870220BDE8F087022184F835107D
:1046000060653B464A4641462046FEF73AFF94F82D
:104610005C003F2101FA00F0B0602068016841F0C1
:10462000160101602068416941F080014161206C00
:1046300020B12068016841F008010160206801682C
:1046400041F001010160D2E72E2E2F447269766598
:1046500072732F53544D3332463478785F48414C4F
:104660005F4472697665722F5372632F73746D3372
:1046700032663478785F68616C5F646D612E6300C8
:1046800070B5044600F02EFA0546B4F1FF3F02D0A3
:1046900004480078044400F025FA401BA042FAD3F5
:1046A00070BD0000F000002010B50446012C01D1BF
:1046B00010F074F810BD000010B504490A680242F9
:1046C00002D00860FFF7F0FF10BD0000143C01406D
:1046D0002DE9F84F04460D46B64FDFF8DC92DFF8BF
:1046E000DCA2DFF8DCB2A4F18048B8F500381FD0B6
:1046F000BC421DD04C451BD0544519D05C4517D049
:10470000A4F18040B0F5053012D0A4F18040B0F59E
:1047100006300DD0A4F18040B0F5073008D0A4F1E8
:104720008040B0F5083003D0B321A6A00CF0E5FA24
:1047300028680104090C01D0000C03D0B421A1A009
:104740000CF0DBFA686858B3012829D0112827D06B
:10475000022825D0122823D0A0F18051B1F588116C
:104760001ED0A0F18051B1F5041119D0A0F18051F3
:10477000B1F5441114D0A0F18051B1F590110FD0D2
:10478000A0F18051B1F508110AD0A0F18051B1F526
:10479000481105D0032803D0B5218AA00CF0ADFA4A
:1047A000A86838B1012805D0022803D0B62185A019
:1047B0000CF0A3FA00264FF00F08012000FA06FAC9
:1047C000286800EA0A07574540F0DE80686802283A
:1047D00001D012282FD12869F8B109281DD001284D
:1047E0001BD0022819D0032817D0042815D005287B
:1047F00013D0062811D007280FD008280DD00A287A
:104800000BD00B2809D00C2807D00D2805D00F2875
:1048100003D0C7216BA00CF070FAF00804EB800005
:10482000026A7107C90E08FA01F39A432B6903FA69
:1048300001F11143016220684FEA4609032101FAA0
:1048400009FB20EA0B00297901F0030101FA09F1C3
:10485000084320606868012805D0022803D0112889
:1048600001D012281CD1E86848B1012807D00228DD
:1048700005D0032803D0DA2152A00CF03EFAA0683C
:1048800020EA0B00E96801FA09F10843A0606068BA
:1048900020EA0A002979C1F30011B14008436060A1
:1048A000E06820EA0B00A96801FA09F10843E0601A
:1048B000686810F0805F67D05148016841F480411A
:1048C0000160006800F48040009026F0030000F1D1
:1048D000804202F59832D2F80808B107090F08FAA9
:1048E00001F320EA0303A4F18040B0F5003051D079
:1048F000A4F18040B0F501304ED0A4F18040B0F575
:1049000002304BD0A4F18040B0F5033048D0A4F180
:104910008040B0F5043045D0A4F18040B0F50530BA
:1049200042D0A4F18040B0F506303FD0A4F18040E1
:10493000B0F507303CD0082088401843C2F808087A
:1049400030490868B8436A6812F4803F00D03843A1
:1049500008602D490868B8436A6812F4003F00D027
:104960003843086029490868B8436A6812F4801F10
:1049700000D03843086026490868B8436A6812F4D2
:10498000001F00D038430860761C102EFFF415AFCE
:10499000BDE8F88F0020CFE70120CDE70220CBE76C
:1049A0000320C9E70420C7E70520C5E70620C3E7C1
:1049B0000720C1E70004024000080240000C02404A
:1049C000001002402E2E2F447269766572732F53A9
:1049D000544D3332463478785F48414C5F447269B5
:1049E0007665722F5372632F73746D333266347829
:1049F000785F68616C5F6770696F2E63000000000C
:104A000044380240003C0140043C0140083C014065
:104A10000C3C014070B505460C46002C04D14FF407
:104A2000BF7105A00CF069F92869204201D001206E
:104A300070BD002070BD00002E2E2F447269766577
:104A400072732F53544D3332463478785F48414C5B
:104A50005F4472697665722F5372632F73746D337E
:104A600032663478785F68616C5F6770696F2E6357
:104A70000000000070B506460C461546002C04D117
:104A800040F29F1108A00CF038F935B1012D04D087
:104A90004FF4D07104A00CF030F90DB1B46170BDC9
:104AA0002004B06170BD00002E2E2F44726976651F
:104AB00072732F53544D3332463478785F48414CEB
:104AC0005F4472697665722F5372632F73746D330E
:104AD00032663478785F68616C5F6770696F2E63E7
:104AE000000000000148806870470000F0000020CE
:104AF00010B50446D4F8C00208F01CFE10BD10B575
:104B00000446D4F8C00208F035FE10BD00680AF073
:104B10003BBB00680AF03CBB01EB810100EBC1002C
:104B200090F85C00704701EB810100EBC100C06CA4
:104B3000704710B5044694F8B802012809D0012046
:104B400084F8B80220680AF030FB002084F8B8022C
:104B500010BD022010BD2DE9F04383B004460C9E29
:104B60000B9D0A9894F8B8C2BCF1010F1CD04FF00D
:104B7000010884F8B88201EB810C04EBCC0C00270F
:104B80008CF83D708CF83830ACF840608CF83910F7
:104B90008CF83F5002F07F098CF83A9012F0800FA9
:104BA00006D08CF83B8005E003B00220BDE8F0831E
:104BB0008CF83B708CF83C000296019500902068C0
:104BC0000AF05AFB84F8B87203B0BDE8F08370B500
:104BD00004460D461646D4F8C00208F079FE70BDB2
:104BE0002DE9F003DDF81C80089E069D01EB810C89
:104BF00000EBCC0C8CF83B208CF83F300227002DCA
:104C00000AD08CF84270002453B1012B3ED0022B05
:104C100016D0032B3CD126E003248CF84240F2E767
:104C2000012D35D12ABB16B901228CF851209CF8F0
:104C3000512012B18CF842702AE08CF8424027E0F3
:104C40002AB19CF850205AB18CF8427020E09CF8B0
:104C5000512012B18CF842701AE08CF8424017E0F3
:104C60008CF8424014E02AB19CF850205AB18CF8DC
:104C700042700DE09CF8512012B18CF8427007E0B0
:104C80008CF8424004E08CF8424001E08CF842404D
:104C9000CCF84480CCF848608CF85C40CCF84C40B0
:104CA0008CF839108CF85D40027C0068BDE8F00398
:104CB0000CF138010AF06EBB2DE9F0410446206882
:104CC00006460AF06EFA012879D120680AF0B9FC8C
:104CD000002874D020680AF0B4FC10F4001F03D040
:104CE00021684FF40010486120680AF0AAFC10F413
:104CF000801F03D021684FF48010486120680AF0BB
:104D0000A0FC10F0806F03D021684FF080604861F4
:104D100020680AF096FC10F0020F02D021680220F1
:104D2000486120680AF08DFC10F0005F10D0D6F8C2
:104D3000400420F02E00C6F840042046FFF7DFFEB6
:104D4000012120680AF060FC21684FF000504861A2
:104D500020680AF076FC10F0807F02D0204604F034
:104D6000E1FC20680AF06DFC10F0080F05D0204629
:104D700000F06FF921680820486120680AF061FCA2
:104D800010F0007F28D020680AF000FB07460025BD
:104D9000A06800281CD94FF0010805F00F0008FAA0
:104DA00000F0384210D006EB4510D0F8000510F4A2
:104DB000004F05D0E9B2204604F041FA04E01EE0BD
:104DC000E9B2204604F076FB6D1CA068A842E4D846
:104DD00021684FF00070486120680AF032FC10F042
:104DE000100F0CD02068816921F0100181612046EC
:104DF00004F002FD2068816941F010018161BDE885
:104E0000F08100002DE9F0418AB00446002C12D058
:104E10002068B0F1A04F08D0A0F18041B1F5802109
:104E200003D07A212AA00BF068FF256894F8B90214
:104E3000002620B108E00AB00120BDE8F08184F826
:104E4000B862204600F060F8032084F8B902E86BED
:104E500010F4807F00D1266120680AF031F904F156
:104E60001000D4F82C8090E80F10A76A666A8DE8CD
:104E70000F10CDF81C8006970596616B206B099189
:104E8000089094E80F00251D0AF0BCF80121206865
:104E90000AF008FC05F10C00D5F8288090E80F1006
:104EA0006F6A2E6A8DE80F10CDF81C800697059664
:104EB000296BE86A0991089094E80F000AF02CFB2E
:104EC000012084F8B9020AB00020BDE8F08100009A
:104ED0002E2E2F447269766572732F53544D3332E0
:104EE000463478785F48414C5F4472697665722F2A
:104EF0005372632F73746D3332663478785F6861F0
:104F00006C5F6863642E630010B586B0044614219C
:104F100001A8FBF703FA2068B0F1A04F4BD100BF06
:104F2000002000903E48006840F001003C490860C5
:104F30000846006800F00100009000BF00BF48155F
:104F4000019000200290039001A93648FFF7C0FBB2
:104F50004FF4E05001900220029000200390049052
:104F60000A20059001A92F48FFF7B2FB00BF2C488B
:104F7000001D006840F080002949091D086000BF3D
:104F80000020009026481430006840F480402449F6
:104F9000143108600846006800F48040009000BFAB
:104FA00000BF00BF00220521432001F067FA432023
:104FB00001F030FA32E01C49206888422ED100BF4F
:104FC000002000901648006840F002001449086074
:104FD0000846006800F00200009000BF00BF4FF4D8
:104FE0004040019002200290002003900320049092
:104FF0000C20059001A90D48FFF76AFB00BF0020B7
:1050000000900748006840F00050054908600846D5
:10501000006800F00050009000BF00BF06B010BD57
:10502000303802400000024000000440000402400A
:1050300010B50446D4F8C00208F075FC10BD10B5D8
:105040000446D4F8C00208F072FC10BD00680AF0F3
:105050000EBB10B50446D4F8C00208F006FC10BD23
:1050600010B5044694F8B80201280DD0012084F848
:10507000B80220680AF05CF8012120680AF038F8CC
:10508000002084F8B80210BD022010BD10B50446FF
:1050900094F8B802012809D0012084F8B8022068E9
:1050A0000AF018FB002084F8B80210BD022010BDE1
:1050B000704770472DE9F04104462068466947680B
:1050C000002516F4807F06D017F4807F03D00125D9
:1050D0006FF48071416116F4007F08D017F4807F6F
:1050E00005D045F0020521686FF40070486116F4A0
:1050F000806F27D017F4807F24D094F83E20618DF4
:1051000094F83D00236B202A08D139B9212810D00A
:1051100029280ED0282801D1212B0AD021686FF42C
:105120008060486145F0040594F83E00102804D0E2
:1051300008E0204605F042FA04E02068016841F4E6
:105140000071016016F4006F08D017F4807F05D05D
:1051500045F0080521686FF400604861002D07D014
:10516000206C284320642046BDE8F04104F010BCC8
:10517000BDE8F08170B504460021D4F800C0DCF829
:105180000420E06A94F83E3094F83D50102B07D08C
:10519000402B05D0206C002872D0DCF8143073E06E
:1051A000DCF81830DCF8141011F0010F05D1B0F55F
:1051B0002A0F7CD0B0F12A4F79D011F0010F0AD01C
:1051C00012F4007F07D0204604F090FB2046BDE893
:1051D000704005F022B811F0080F07D012F4007FDC
:1051E00004D02046BDE8704004F018BF11F0020F53
:1051F00007D012F4007F04D02046BDE8704004F0D0
:1052000023BF13F0040F1DD0DCF8040010F4006F6E
:105210004DD111F0800F05D012F4806F02D011F043
:10522000040F0AD011F0040F41D012F4007F7DD09A
:105230002046BDE8704004F00BBE2046BDE870403B
:1052400004F051BEDCF8040010F4006F6ED111F0D0
:10525000400F05D012F4806F02D011F0040F0AD075
:1052600011F0040F62D012F4007F5FD02046BDE839
:10527000704004F04EBC2046BDE8704004F0C9BC4C
:10528000DCF81810DCF8143013F0020F0BD012F415
:10529000007F08D0206C08B1DCF818102046BDE86B
:1052A000704005F065B913F0100F09D000E03DE043
:1052B00012F4007F04D02046BDE8704005F0C0B96C
:1052C000212D15D0292D13D013F0400F05D012F445
:1052D000806F02D013F0040F23D013F0040F25D0F9
:1052E00012F4007F22D02046BDE8704005F0E0B8FF
:1052F00013F0800F05D012F4806F02D013F0040F6A
:105300000AD013F0040F11D012F4007F0ED0204603
:10531000BDE8704005F0FCB82046BDE8704005F0DF
:1053200005B92046BDE8704005F0D0B870BD7047A3
:1053300070B50446002C00F066802068A0F1804122
:10534000B1F5A8410ED0A0F18041B1F5B04109D02E
:10535000A0F18041B1F5B84104D040F2BB1187A063
:105360000BF0CBFC60689349401E884204D94FF48F
:10537000DE7182A00BF0C1FCA06838B1B0F5804F9F
:1053800004D040F2BD117DA00BF0B7FCE068800AAC
:1053900004D04FF4DF7179A00BF0AFFC2069B0F5B9
:1053A000804F07D0B0F5404F04D040F2BF1173A03A
:1053B0000BF0A3FC606930B1012804D04FF4E07118
:1053C0006EA00BF09AFCA06930F0FE0004D040F211
:1053D000C1116AA00BF091FCE06930B1402804D003
:1053E0004FF4E17165A00BF088FC206A30B1802891
:1053F00004D040F2C31161A00BF07FFC94F83D0093
:10540000002510B106E0012070BD84F83C50204614
:1054100000F008FE242084F83D002068016821F097
:105420000101016001F0C6FB634B6168994203D83A
:105430006249884203D304E06149884201D20120D5
:1054400070BD6049B0FBF1F12268D2F804C02CF0C5
:105450003F0C4CEA010CC2F804C062689A4201D8C1
:105460004A1C07E04FF4967251434FF47A72B1FB35
:10547000F2F14A1C2168D1F820C02CF03F0C42EA1E
:105480000C020A626168994210D84900401EB0FBC4
:10549000F1F2521CC2F30B02042A01D2042024E0D0
:1054A000B0FBF1F0401CC0F30B001EE0A368EBB3AF
:1054B00001EBC10202EB0112A0F1010CBCFBF2F204
:1054C000521C42F480421205120D4CD07BB301EB0A
:1054D000C10202EB0111401EB0FBF1F0401CC0F311
:1054E0000B0040F4804040F400402168CA6922F07B
:1054F000FF0222F44F421043C861216AE069014370
:105500002068026822F0C00211430160E16820694E
:1055100001432068826822F0FF0222F40342114313
:105520008160A16960690143206801E013E01CE02B
:10553000C26822F0FF021143C1602068016841F097
:10554000010101602564202084F83D00256384F872
:105550003E50002070BD01EB4102A0F1010CBCFBEC
:10556000F2F2521CAFE70120BFE701EB4101401E00
:10557000B0FBF1F0401CC0F30B00B4E72E2E2F441B
:105580007269766572732F53544D3332463478788E
:105590005F48414C5F4472697665722F5372632F86
:1055A00073746D3332663478785F68616C5F69322A
:1055B000632E63007F1A0600A086010080841E000F
:1055C00000093D0040420F002DE9F84F044688468F
:1055D00092461E46FFF786FA0546012794F83D00DD
:1055E000202802D00220BDE8F88F19230122524959
:1055F0002046009505F002F910B10220BDE8F88FB1
:1056000094F83C00012808D0012084F83C00206870
:10561000016811F0010F03D006E00220BDE8F88F09
:10562000016841F0010101602068016821F4006116
:105630000160242084F83D00002020643F48E0629F
:1056400008F0FE094FF0A0084FF0200B2068016819
:1056500041F480710160334600224FF00111204671
:10566000009505F0CBF810B10120BDE8F88F206857
:10567000C0F81090FFF736FA054620684169C1F37B
:1056800040014069C0F380200EE0FFF72BFA401B79
:10569000B04200D80EB984F83D8020684169C1F35A
:1056A00040014069C0F3802094F83D20A02A02D038
:1056B00009B90028E9D084F83DB02068416911F0AB
:1056C000020F1BD02168096841F4007101600026B7
:1056D00020684169806900901923012216492046FB
:1056E000009505F08BF810B10120BDE8F88F84F823
:1056F0003DB084F83C600020BDE8F88F016841F4BB
:105700000071016021686FF48060486119230122F3
:1057100009492046009505F071F810B10120BDE857
:10572000F88F7F1C574591D384F83DB0002084F852
:105730003C000120BDE8F88F020010000000FFFFD0
:1057400070477047704700002DE9F84F04468A46BD
:1057500017469946DDF82880FFF7C4F9054694F806
:105760003D00202802D00220BDE8F88F1923012235
:105770009C492046009505F041F810B10220BDE893
:10578000F88F94F83C00012808D0012084F83C00F0
:105790002068016811F0010F03D006E00220BDE887
:1057A000F88F016841F0010101602068016821F46F
:1057B00000610160222084F83D00102084F83E0042
:1057C000002626646762A4F82A90608D20858648AA
:1057D000E0622B4642465146204604F065FA10B17D
:1057E0000120BDE8F88F208D28B301282CD0022895
:1057F00038D02068016841F4806101602068416907
:1058000080690090208D002800F0E280774F208D85
:10581000032800F2B380012833D0022848D0434641
:10582000002239462046009504F0E8FF002869D0A0
:105830000120BDE8F88F2068416981690091016805
:1058400041F400710160DDE72068016821F48061A6
:1058500001602068416981690091016841F400712B
:105860000160CFE72068016821F480610160206851
:10587000016841F40061016020684169806900901D
:10588000C0E72A464146204605F079F810B10120CC
:10589000BDE8F88F20680069616A0870606A401C82
:1058A0006062208D401E2085608D401E60858BE0EB
:1058B0004346002239462046009504F09FFF10B170
:1058C0000120BDE8F88F2068016841F40071016093
:1058D00020680069616A0870606A401C6062218DFE
:1058E000491E2185618D491E618521680969017004
:1058F000606A401C6062208D401E2085608D401EC5
:10590000608561E02068016821F4806101602068A1
:105910000069616A0870606A401C6062208D401EE8
:105920002085608D401E6085434600223946204612
:10593000009504F063FF10B10120BDE8F88F2068E6
:10594000016841F40071016020680069616A0870B3
:10595000606A401C6062218D491E2185618D491E4F
:105960006185216809690170606A401C6062208D50
:10597000401E2085608D401E608525E02A464146F8
:10598000204604F0FCFF10B10120BDE8F88F20682C
:105990000069616A0870606A401C6062218D491E5E
:1059A0002185618D491E618521684A6912F0040FC5
:1059B0000AD009690170606A401C6062208D401E37
:1059C0002085608D401E6085208D00287FF41FAFEC
:1059D000202084F83D0084F83E6084F83C6000207C
:1059E000BDE8F88F020010000000FFFF0400010076
:1059F0002DE9F84F04468A46904699460A9FFFF7DC
:105A000071F8064694F83D00202802D00220BDE837
:105A1000F88F192301224C492046009604F0EEFE2F
:105A200010B10220BDE8F88F94F83C00012808D09E
:105A3000012084F83C002068016811F0010F03D0B8
:105A400006E00220BDE8F88F016841F00101016025
:105A50002068016821F400610160212084F83D0084
:105A6000102084F83E0000252564C4F82480A4F8A2
:105A70002A90608D20853548E06233463A4651468B
:105A8000204604F093F910B10120BDE8F88F20689A
:105A9000416980690090208D002846D03246394601
:105AA000204604F0AAFF50B1206C042804D12068DD
:105AB000016841F4007101600120BDE8F88F606A5F
:105AC000216800780861606A00F1010CC4F824C004
:105AD000608D401E6085208D401E80B2208522682A
